{
  "contracts/LudoStats.sol": {
    "LudoStats": {
      "abi": [
        {
          "anonymous": false,
          "inputs": [
            {
              "indexed": true,
              "internalType": "address",
              "name": "player",
              "type": "address"
            },
            {
              "indexed": true,
              "internalType": "bool",
              "name": "won",
              "type": "bool"
            },
            {
              "indexed": false,
              "internalType": "uint8",
              "name": "mode",
              "type": "uint8"
            },
            {
              "indexed": false,
              "internalType": "uint32",
              "name": "durationSecs",
              "type": "uint32"
            },
            {
              "indexed": false,
              "internalType": "uint256",
              "name": "stakeAmount",
              "type": "uint256"
            },
            {
              "indexed": false,
              "internalType": "uint256",
              "name": "timestamp",
              "type": "uint256"
            }
          ],
          "name": "ResultRecorded",
          "type": "event"
        },
        {
          "inputs": [
            {
              "internalType": "bool",
              "name": "won",
              "type": "bool"
            },
            {
              "internalType": "uint8",
              "name": "mode",
              "type": "uint8"
            },
            {
              "internalType": "uint32",
              "name": "durationSecs",
              "type": "uint32"
            },
            {
              "internalType": "uint256",
              "name": "stakeAmount",
              "type": "uint256"
            }
          ],
          "name": "recordResult",
          "outputs": [],
          "stateMutability": "nonpayable",
          "type": "function"
        }
      ],
      "evm": {
        "bytecode": {
          "linkReferences": {},
          "object": "6080604052348015600f57600080fd5b506101308061001f6000396000f3fe6080604052348015600f57600080fd5b506004361060285760003560e01c80633102b7d214602d575b600080fd5b603c60383660046099565b603e565b005b6040805160ff8516815263ffffffff841660208201529081018290524260608201528415159033907fea072970ff64653f98da207986b5edd164c2148080556774757c5f3f012868ec9060800160405180910390a350505050565b6000806000806080858703121560ae57600080fd5b8435801515811460bd57600080fd5b9350602085013560ff8116811460d257600080fd5b9250604085013563ffffffff8116811460ea57600080fd5b939692955092936060013592505056fea26469706673582212205176b98f3042abb002940e282b28f8b6da1b431ae7f8bb36e60c97a54f329d4c64736f6c634300081c0033",
          "opcodes": "PUSH1 0x80 PUSH1 0x40 MSTORE CALLVALUE DUP1 ISZERO PUSH1 0xF JUMPI PUSH1 0x0 DUP1 REVERT JUMPDEST POP PUSH2 0x130 DUP1 PUSH2 0x1F PUSH1 0x0 CODECOPY PUSH1 0x0 RETURN INVALID PUSH1 0x80 PUSH1 0x40 MSTORE CALLVALUE DUP1 ISZERO PUSH1 0xF JUMPI PUSH1 0x0 DUP1 REVERT JUMPDEST POP PUSH1 0x4 CALLDATASIZE LT PUSH1 0x28 JUMPI PUSH1 0x0 CALLDATALOAD PUSH1 0xE0 SHR DUP1 PUSH4 0x3102B7D2 EQ PUSH1 0x2D JUMPI JUMPDEST PUSH1 0x0 DUP1 REVERT JUMPDEST PUSH1 0x3C PUSH1 0x38 CALLDATASIZE PUSH1 0x4 PUSH1 0x99 JUMP JUMPDEST PUSH1 0x3E JUMP JUMPDEST STOP JUMPDEST PUSH1 0x40 DUP1 MLOAD PUSH1 0xFF DUP6 AND DUP2 MSTORE PUSH4 0xFFFFFFFF DUP5 AND PUSH1 0x20 DUP3 ADD MSTORE SWAP1 DUP2 ADD DUP3 SWAP1 MSTORE TIMESTAMP PUSH1 0x60 DUP3 ADD MSTORE DUP5 ISZERO ISZERO SWAP1 CALLER SWAP1 PUSH32 0xEA072970FF64653F98DA207986B5EDD164C2148080556774757C5F3F012868EC SWAP1 PUSH1 0x80 ADD PUSH1 0x40 MLOAD DUP1 SWAP2 SUB SWAP1 LOG3 POP POP POP POP JUMP JUMPDEST PUSH1 0x0 DUP1 PUSH1 0x0 DUP1 PUSH1 0x80 DUP6 DUP8 SUB SLT ISZERO PUSH1 0xAE JUMPI PUSH1 0x0 DUP1 REVERT JUMPDEST DUP5 CALLDATALOAD DUP1 ISZERO ISZERO DUP2 EQ PUSH1 0xBD JUMPI PUSH1 0x0 DUP1 REVERT JUMPDEST SWAP4 POP PUSH1 0x20 DUP6 ADD CALLDATALOAD PUSH1 0xFF DUP2 AND DUP2 EQ PUSH1 0xD2 JUMPI PUSH1 0x0 DUP1 REVERT JUMPDEST SWAP3 POP PUSH1 0x40 DUP6 ADD CALLDATALOAD PUSH4 0xFFFFFFFF DUP2 AND DUP2 EQ PUSH1 0xEA JUMPI PUSH1 0x0 DUP1 REVERT JUMPDEST SWAP4 SWAP7 SWAP3 SWAP6 POP SWAP3 SWAP4 PUSH1 0x60 ADD CALLDATALOAD SWAP3 POP POP JUMP INVALID LOG2 PUSH5 0x6970667358 0x22 SLT KECCAK256 MLOAD PUSH23 0xB98F3042ABB002940E282B28F8B6DA1B431AE7F8BB36E6 0xC SWAP8 0xA5 0x4F ORIGIN SWAP14 0x4C PUSH5 0x736F6C6343 STOP ADDMOD SHR STOP CALLER "
        },
        "methodIdentifiers": {
          "recordResult(bool,uint8,uint32,uint256)": "3102b7d2"
        }
      }
    }
  }
}