{
  "_format": "hh-sol-artifact-1",
  "contractName": "LudoStakes",
  "sourceName": "contracts/LudoStakes.sol",
  "abi": [
    {
      "inputs": [
        {
          "internalType": "address",
          "name": "_gameServer",
          "type": "address"
        },
        {
          "internalType": "address",
          "name": "_treasury",
          "type": "address"
        },
        {
          "internalType": "address",
          "name": "_cUSD",
          "type": "address"
        }
      ],
      "stateMutability": "nonpayable",
      "type": "constructor"
    },
    {
      "inputs": [],
      "name": "CannotJoinOwnGame",
      "type": "error"
    },
    {
      "inputs": [],
      "name": "GameAlreadyExists",
      "type": "error"
    },
    {
      "inputs": [],
      "name": "GameNotActive",
      "type": "error"
    },
    {
      "inputs": [],
      "name": "GameNotJoinable",
      "type": "error"
    },
    {
      "inputs": [],
      "name": "InvalidStakeAmount",
      "type": "error"
    },
    {
      "inputs": [],
      "name": "InvalidWinner",
      "type": "error"
    },
    {
      "inputs": [],
      "name": "NotAuthorized",
      "type": "error"
    },
    {
      "inputs": [],
      "name": "ReentrancyGuardReentrantCall",
      "type": "error"
    },
    {
      "inputs": [],
      "name": "TransferFailed",
      "type": "error"
    },
    {
      "inputs": [],
      "name": "ZeroAddress",
      "type": "error"
    },
    {
      "anonymous": false,
      "inputs": [
        {
          "indexed": true,
          "internalType": "bytes32",
          "name": "gameId",
          "type": "bytes32"
        },
        {
          "indexed": true,
          "internalType": "address",
          "name": "refundedTo",
          "type": "address"
        }
      ],
      "name": "GameCancelled",
      "type": "event"
    },
    {
      "anonymous": false,
      "inputs": [
        {
          "indexed": true,
          "internalType": "bytes32",
          "name": "gameId",
          "type": "bytes32"
        },
        {
          "indexed": true,
          "internalType": "address",
          "name": "winner",
          "type": "address"
        },
        {
          "indexed": false,
          "internalType": "uint256",
          "name": "reward",
          "type": "uint256"
        }
      ],
      "name": "GameCompleted",
      "type": "event"
    },
    {
      "anonymous": false,
      "inputs": [
        {
          "indexed": true,
          "internalType": "bytes32",
          "name": "gameId",
          "type": "bytes32"
        },
        {
          "indexed": true,
          "internalType": "address",
          "name": "player1",
          "type": "address"
        },
        {
          "indexed": false,
          "internalType": "uint256",
          "name": "stakeAmount",
          "type": "uint256"
        }
      ],
      "name": "GameCreated",
      "type": "event"
    },
    {
      "anonymous": false,
      "inputs": [
        {
          "indexed": true,
          "internalType": "bytes32",
          "name": "gameId",
          "type": "bytes32"
        },
        {
          "indexed": true,
          "internalType": "address",
          "name": "player2",
          "type": "address"
        }
      ],
      "name": "GameJoined",
      "type": "event"
    },
    {
      "anonymous": false,
      "inputs": [
        {
          "indexed": true,
          "internalType": "address",
          "name": "newServer",
          "type": "address"
        }
      ],
      "name": "GameServerUpdated",
      "type": "event"
    },
    {
      "anonymous": false,
      "inputs": [
        {
          "indexed": true,
          "internalType": "address",
          "name": "previousOwner",
          "type": "address"
        },
        {
          "indexed": true,
          "internalType": "address",
          "name": "newOwner",
          "type": "address"
        }
      ],
      "name": "OwnershipTransferred",
      "type": "event"
    },
    {
      "anonymous": false,
      "inputs": [
        {
          "indexed": true,
          "internalType": "address",
          "name": "newTreasury",
          "type": "address"
        }
      ],
      "name": "TreasuryUpdated",
      "type": "event"
    },
    {
      "inputs": [],
      "name": "FEE_BPS",
      "outputs": [
        {
          "internalType": "uint256",
          "name": "",
          "type": "uint256"
        }
      ],
      "stateMutability": "view",
      "type": "function"
    },
    {
      "inputs": [],
      "name": "cUSD",
      "outputs": [
        {
          "internalType": "address",
          "name": "",
          "type": "address"
        }
      ],
      "stateMutability": "view",
      "type": "function"
    },
    {
      "inputs": [
        {
          "internalType": "bytes32",
          "name": "gameId",
          "type": "bytes32"
        }
      ],
      "name": "cancelGame",
      "outputs": [],
      "stateMutability": "nonpayable",
      "type": "function"
    },
    {
      "inputs": [
        {
          "internalType": "bytes32",
          "name": "gameId",
          "type": "bytes32"
        },
        {
          "internalType": "uint256",
          "name": "stakeAmount",
          "type": "uint256"
        }
      ],
      "name": "createGame",
      "outputs": [],
      "stateMutability": "nonpayable",
      "type": "function"
    },
    {
      "inputs": [
        {
          "internalType": "bytes32",
          "name": "gameId",
          "type": "bytes32"
        },
        {
          "internalType": "address",
          "name": "winner",
          "type": "address"
        }
      ],
      "name": "declareWinner",
      "outputs": [],
      "stateMutability": "nonpayable",
      "type": "function"
    },
    {
      "inputs": [],
      "name": "gameServer",
      "outputs": [
        {
          "internalType": "address",
          "name": "",
          "type": "address"
        }
      ],
      "stateMutability": "view",
      "type": "function"
    },
    {
      "inputs": [
        {
          "internalType": "bytes32",
          "name": "",
          "type": "bytes32"
        }
      ],
      "name": "games",
      "outputs": [
        {
          "internalType": "address",
          "name": "player1",
          "type": "address"
        },
        {
          "internalType": "address",
          "name": "player2",
          "type": "address"
        },
        {
          "internalType": "uint256",
          "name": "stakeAmount",
          "type": "uint256"
        },
        {
          "internalType": "enum LudoStakes.GameState",
          "name": "state",
          "type": "uint8"
        }
      ],
      "stateMutability": "view",
      "type": "function"
    },
    {
      "inputs": [
        {
          "internalType": "bytes32",
          "name": "gameId",
          "type": "bytes32"
        }
      ],
      "name": "getGame",
      "outputs": [
        {
          "components": [
            {
              "internalType": "address",
              "name": "player1",
              "type": "address"
            },
            {
              "internalType": "address",
              "name": "player2",
              "type": "address"
            },
            {
              "internalType": "uint256",
              "name": "stakeAmount",
              "type": "uint256"
            },
            {
              "internalType": "enum LudoStakes.GameState",
              "name": "state",
              "type": "uint8"
            }
          ],
          "internalType": "struct LudoStakes.Game",
          "name": "",
          "type": "tuple"
        }
      ],
      "stateMutability": "view",
      "type": "function"
    },
    {
      "inputs": [
        {
          "internalType": "bytes32",
          "name": "gameId",
          "type": "bytes32"
        }
      ],
      "name": "joinGame",
      "outputs": [],
      "stateMutability": "nonpayable",
      "type": "function"
    },
    {
      "inputs": [
        {
          "internalType": "uint256",
          "name": "stakeAmount",
          "type": "uint256"
        }
      ],
      "name": "netReward",
      "outputs": [
        {
          "internalType": "uint256",
          "name": "",
          "type": "uint256"
        }
      ],
      "stateMutability": "pure",
      "type": "function"
    },
    {
      "inputs": [],
      "name": "owner",
      "outputs": [
        {
          "internalType": "address",
          "name": "",
          "type": "address"
        }
      ],
      "stateMutability": "view",
      "type": "function"
    },
    {
      "inputs": [
        {
          "internalType": "address",
          "name": "_gameServer",
          "type": "address"
        }
      ],
      "name": "setGameServer",
      "outputs": [],
      "stateMutability": "nonpayable",
      "type": "function"
    },
    {
      "inputs": [
        {
          "internalType": "address",
          "name": "_treasury",
          "type": "address"
        }
      ],
      "name": "setTreasury",
      "outputs": [],
      "stateMutability": "nonpayable",
      "type": "function"
    },
    {
      "inputs": [
        {
          "internalType": "address",
          "name": "newOwner",
          "type": "address"
        }
      ],
      "name": "transferOwnership",
      "outputs": [],
      "stateMutability": "nonpayable",
      "type": "function"
    },
    {
      "inputs": [],
      "name": "treasury",
      "outputs": [
        {
          "internalType": "address",
          "name": "",
          "type": "address"
        }
      ],
      "stateMutability": "view",
      "type": "function"
    }
  ],
  "bytecode": "0x60a060405234801561001057600080fd5b5060405161119d38038061119d83398101604081905261002f916100ff565b60017f9b779b17422d0df92223018b32b4d1fa46e071723d6817e2486d003becc55f00556001600160a01b038316158061007057506001600160a01b038216155b8061008257506001600160a01b038116155b156100a05760405163d92e233d60e01b815260040160405180910390fd5b60008054336001600160a01b0319918216179091556001805482166001600160a01b03958616179055600280549091169284169290921790915516608052610142565b80516001600160a01b03811681146100fa57600080fd5b919050565b60008060006060848603121561011457600080fd5b61011d846100e3565b925061012b602085016100e3565b9150610139604085016100e3565b90509250925092565b60805161101d61018060003960008181610125015281816103b2015281816105ca0152818161067f015281816109800152610b70015261101d6000f3fe608060405234801561001057600080fd5b50600436106100f55760003560e01c80638da5cb5b11610097578063c0b9c53c11610066578063c0b9c53c1461020f578063f0f4426014610222578063f2fde38b14610235578063f579f8821461024857600080fd5b80638da5cb5b146101cd578063b3bd6a27146101e0578063bf333f2c146101f3578063bf474766146101fc57600080fd5b80633f7121b0116100d35780633f7121b01461017257806361d027b3146101875780636e9359e41461019a57806373931bbf146101ad57600080fd5b80630845e897146100fa5780631fccf6721461012057806329cd564c1461015f575b600080fd5b61010d610108366004610de7565b61029f565b6040519081526020015b60405180910390f35b6101477f000000000000000000000000000000000000000000000000000000000000000081565b6040516001600160a01b039091168152602001610117565b600154610147906001600160a01b031681565b610185610180366004610de7565b6102de565b005b600254610147906001600160a01b031681565b6101856101a8366004610e1c565b61048f565b6101c06101bb366004610de7565b61076e565b6040516101179190610e80565b600054610147906001600160a01b031681565b6101856101ee366004610ec4565b610812565b61010d61032081565b61018561020a366004610de7565b6108ae565b61018561021d366004610ee6565b610a4f565b610185610230366004610ec4565b610c50565b610185610243366004610ec4565b610cec565b61028f610256366004610de7565b600360208190526000918252604090912080546001820154600283015492909301546001600160a01b0391821693909116919060ff1684565b6040516101179493929190610f08565b6000806102ad836002610f53565b905060006127106102c061032084610f53565b6102ca9190610f70565b90506102d68183610f92565b949350505050565b6102e6610d99565b60008181526003602052604090206001600382015460ff16600481111561030f5761030f610e48565b1461032d576040516386db4a3960e01b815260040160405180910390fd5b80546001600160a01b0316331480159061035257506001546001600160a01b03163314155b156103705760405163ea8e4eb560e01b815260040160405180910390fd5b8054600282015460038301805460ff1916600490811790915560405163a9059cbb60e01b81526001600160a01b039384169181018290526024810183905290927f0000000000000000000000000000000000000000000000000000000000000000169063a9059cbb906044016020604051808303816000875af11580156103fb573d6000803e3d6000fd5b505050506040513d601f19601f8201168201806040525081019061041f9190610fa5565b61043c576040516312171d8360e31b815260040160405180910390fd5b6040516001600160a01b0383169085907f9b8a8869712403010131240192d2ccdcaaf3462e3d937653cbd3c5aa4982110690600090a350505061048c6001600080516020610fc883398151915255565b50565b6001546001600160a01b031633146104ba5760405163ea8e4eb560e01b815260040160405180910390fd5b6104c2610d99565b60008281526003602052604090206002600382015460ff1660048111156104eb576104eb610e48565b146105085760405162a3097160e01b815260040160405180910390fd5b80546001600160a01b03838116911614801590610535575060018101546001600160a01b03838116911614155b15610553576040516393a5f3c760e01b815260040160405180910390fd5b6000816002015460026105669190610f53565b9050600061271061057961032084610f53565b6105839190610f70565b905060006105918284610f92565b6003858101805460ff1916909117905560405163a9059cbb60e01b81526001600160a01b038781166004830152602482018390529192507f00000000000000000000000000000000000000000000000000000000000000009091169063a9059cbb906044016020604051808303816000875af1158015610615573d6000803e3d6000fd5b505050506040513d601f19601f820116820180604052508101906106399190610fa5565b610656576040516312171d8360e31b815260040160405180910390fd5b60025460405163a9059cbb60e01b81526001600160a01b039182166004820152602481018490527f00000000000000000000000000000000000000000000000000000000000000009091169063a9059cbb906044016020604051808303816000875af11580156106ca573d6000803e3d6000fd5b505050506040513d601f19601f820116820180604052508101906106ee9190610fa5565b61070b576040516312171d8360e31b815260040160405180910390fd5b846001600160a01b0316867fd1abccae8934d5ff9b57f5f0a1bebe781f8f34d4c1c7b20e7634381deebc8db58360405161074791815260200190565b60405180910390a35050505061076a6001600080516020610fc883398151915255565b5050565b6107966040805160808101825260008082526020820181905291810182905290606082015290565b600082815260036020818152604092839020835160808101855281546001600160a01b0390811682526001830154169281019290925260028101549382019390935290820154909190606083019060ff1660048111156107f8576107f8610e48565b600481111561080957610809610e48565b90525092915050565b6000546001600160a01b0316331461083d5760405163ea8e4eb560e01b815260040160405180910390fd5b6001600160a01b0381166108645760405163d92e233d60e01b815260040160405180910390fd5b600180546001600160a01b0319166001600160a01b0383169081179091556040517f48569ed8feb36e5bec763c81783ffc066b2666a9a6140df64e1705ff99f2168890600090a250565b6108b6610d99565b60008181526003602052604090206001600382015460ff1660048111156108df576108df610e48565b146108fd576040516386db4a3960e01b815260040160405180910390fd5b8054336001600160a01b03909116036109295760405163106a317d60e01b815260040160405180910390fd5b600181018054336001600160a01b0319909116811790915560038201805460ff191660029081179091558201546040516323b872dd60e01b8152600481019290925230602483015260448201526001600160a01b037f000000000000000000000000000000000000000000000000000000000000000016906323b872dd906064016020604051808303816000875af11580156109c9573d6000803e3d6000fd5b505050506040513d601f19601f820116820180604052508101906109ed9190610fa5565b610a0a576040516312171d8360e31b815260040160405180910390fd5b604051339083907f719256502a190a7b4efbca7f56497055f1dccc51e2dca31d166dd41353fa21c290600090a35061048c6001600080516020610fc883398151915255565b610a57610d99565b60008281526003602081905260408220015460ff166004811115610a7d57610a7d610e48565b14610a9b57604051630ab805f960e01b815260040160405180910390fd5b80600003610abc57604051630103be3b60e21b815260040160405180910390fd5b604080516080810182523381526000602080830182815283850186815260016060860181815289865260039485905296909420855181546001600160a01b03199081166001600160a01b0392831617835593518287018054909516911617909255516002820155935190840180549394939192909160ff191690836004811115610b4857610b48610e48565b0217905550506040516323b872dd60e01b8152336004820152306024820152604481018390527f00000000000000000000000000000000000000000000000000000000000000006001600160a01b031691506323b872dd906064016020604051808303816000875af1158015610bc2573d6000803e3d6000fd5b505050506040513d601f19601f82011682018060405250810190610be69190610fa5565b610c03576040516312171d8360e31b815260040160405180910390fd5b604051818152339083907e06379582cf33f082958411b512c6d1b9888095de98bc1f9532e3f1653361529060200160405180910390a361076a6001600080516020610fc883398151915255565b6000546001600160a01b03163314610c7b5760405163ea8e4eb560e01b815260040160405180910390fd5b6001600160a01b038116610ca25760405163d92e233d60e01b815260040160405180910390fd5b600280546001600160a01b0319166001600160a01b0383169081179091556040517f7dae230f18360d76a040c81f050aa14eb9d6dc7901b20fc5d855e2a20fe814d190600090a250565b6000546001600160a01b03163314610d175760405163ea8e4eb560e01b815260040160405180910390fd5b6001600160a01b038116610d3e5760405163d92e233d60e01b815260040160405180910390fd5b600080546040516001600160a01b03808516939216917f8be0079c531659141344cd1fd0a4f28419497f9722a3daafe3b4186f6b6457e091a3600080546001600160a01b0319166001600160a01b0392909216919091179055565b610da1610db5565b6002600080516020610fc883398151915255565b600080516020610fc883398151915254600203610de557604051633ee5aeb560e01b815260040160405180910390fd5b565b600060208284031215610df957600080fd5b5035919050565b80356001600160a01b0381168114610e1757600080fd5b919050565b60008060408385031215610e2f57600080fd5b82359150610e3f60208401610e00565b90509250929050565b634e487b7160e01b600052602160045260246000fd5b60058110610e7c57634e487b7160e01b600052602160045260246000fd5b9052565b81516001600160a01b03908116825260208084015190911690820152604080830151908201526060808301516080830191610ebd90840182610e5e565b5092915050565b600060208284031215610ed657600080fd5b610edf82610e00565b9392505050565b60008060408385031215610ef957600080fd5b50508035926020909101359150565b6001600160a01b038581168252841660208201526040810183905260808101610f346060830184610e5e565b95945050505050565b634e487b7160e01b600052601160045260246000fd5b8082028115828204841417610f6a57610f6a610f3d565b92915050565b600082610f8d57634e487b7160e01b600052601260045260246000fd5b500490565b81810381811115610f6a57610f6a610f3d565b600060208284031215610fb757600080fd5b81518015158114610edf57600080fdfe9b779b17422d0df92223018b32b4d1fa46e071723d6817e2486d003becc55f00a2646970667358221220bebe39ae9fd943a6908e51f972e84243c40ebb1a6b3c61ea7635f908204c4fb064736f6c634300081c0033",
  "linkReferences": {},
  "deployedLinkReferences": {}
}